{
  "_format": "hh-sol-artifact-1",
  "contractName": "CompanyFactory",
  "sourceName": "contracts/CompanyFactory.sol",
  "abi": [
    {
      "inputs": [
        {
          "internalType": "contract NFTReward",
          "name": "_nftImpl",
          "type": "address"
        },
        {
          "internalType": "contract Membership",
          "name": "_membershipImpl",
          "type": "address"
        }
      ],
      "stateMutability": "nonpayable",
      "type": "constructor"
    },
    {
      "anonymous": false,
      "inputs": [
        {
          "indexed": false,
          "internalType": "address",
          "name": "MembershipImplAddress",
          "type": "address"
        }
      ],
      "name": "ChangeMembershipImpl",
      "type": "event"
    },
    {
      "anonymous": false,
      "inputs": [
        {
          "indexed": false,
          "internalType": "address",
          "name": "NFTRewardImplAddress",
          "type": "address"
        }
      ],
      "name": "ChangeNFTRewardImpl",
      "type": "event"
    },
    {
      "anonymous": false,
      "inputs": [
        {
          "indexed": false,
          "internalType": "address",
          "name": "signer",
          "type": "address"
        }
      ],
      "name": "ChangeSigner",
      "type": "event"
    },
    {
      "anonymous": false,
      "inputs": [
        {
          "indexed": false,
          "internalType": "address",
          "name": "MembershipAddress",
          "type": "address"
        }
      ],
      "name": "MembershipCreated",
      "type": "event"
    },
    {
      "anonymous": false,
      "inputs": [
        {
          "indexed": false,
          "internalType": "address",
          "name": "NFTRewardAddress",
          "type": "address"
        }
      ],
      "name": "NFTRewardCreated",
      "type": "event"
    },
    {
      "anonymous": false,
      "inputs": [
        {
          "indexed": true,
          "internalType": "bytes32",
          "name": "role",
          "type": "bytes32"
        },
        {
          "indexed": true,
          "internalType": "bytes32",
          "name": "previousAdminRole",
          "type": "bytes32"
        },
        {
          "indexed": true,
          "internalType": "bytes32",
          "name": "newAdminRole",
          "type": "bytes32"
        }
      ],
      "name": "RoleAdminChanged",
      "type": "event"
    },
    {
      "anonymous": false,
      "inputs": [
        {
          "indexed": true,
          "internalType": "bytes32",
          "name": "role",
          "type": "bytes32"
        },
        {
          "indexed": true,
          "internalType": "address",
          "name": "account",
          "type": "address"
        },
        {
          "indexed": true,
          "internalType": "address",
          "name": "sender",
          "type": "address"
        }
      ],
      "name": "RoleGranted",
      "type": "event"
    },
    {
      "anonymous": false,
      "inputs": [
        {
          "indexed": true,
          "internalType": "bytes32",
          "name": "role",
          "type": "bytes32"
        },
        {
          "indexed": true,
          "internalType": "address",
          "name": "account",
          "type": "address"
        },
        {
          "indexed": true,
          "internalType": "address",
          "name": "sender",
          "type": "address"
        }
      ],
      "name": "RoleRevoked",
      "type": "event"
    },
    {
      "inputs": [],
      "name": "ADMIN",
      "outputs": [
        {
          "internalType": "bytes32",
          "name": "",
          "type": "bytes32"
        }
      ],
      "stateMutability": "view",
      "type": "function"
    },
    {
      "inputs": [],
      "name": "DEFAULT_ADMIN_ROLE",
      "outputs": [
        {
          "internalType": "bytes32",
          "name": "",
          "type": "bytes32"
        }
      ],
      "stateMutability": "view",
      "type": "function"
    },
    {
      "inputs": [],
      "name": "MOD",
      "outputs": [
        {
          "internalType": "bytes32",
          "name": "",
          "type": "bytes32"
        }
      ],
      "stateMutability": "view",
      "type": "function"
    },
    {
      "inputs": [
        {
          "internalType": "contract Membership",
          "name": "_membershipImpl",
          "type": "address"
        }
      ],
      "name": "changeMembershipImpl",
      "outputs": [],
      "stateMutability": "nonpayable",
      "type": "function"
    },
    {
      "inputs": [
        {
          "internalType": "contract NFTReward",
          "name": "_nftImpl",
          "type": "address"
        }
      ],
      "name": "changeNftImpl",
      "outputs": [],
      "stateMutability": "nonpayable",
      "type": "function"
    },
    {
      "inputs": [
        {
          "internalType": "string",
          "name": "_name",
          "type": "string"
        },
        {
          "internalType": "string",
          "name": "_symbol",
          "type": "string"
        },
        {
          "internalType": "address",
          "name": "_admin",
          "type": "address"
        },
        {
          "internalType": "address",
          "name": "_nftContract",
          "type": "address"
        }
      ],
      "name": "createMembership",
      "outputs": [
        {
          "internalType": "address",
          "name": "membershipAddress",
          "type": "address"
        }
      ],
      "stateMutability": "nonpayable",
      "type": "function"
    },
    {
      "inputs": [
        {
          "internalType": "address",
          "name": "_admin",
          "type": "address"
        },
        {
          "internalType": "string",
          "name": "_name",
          "type": "string"
        },
        {
          "internalType": "string",
          "name": "_symbol",
          "type": "string"
        },
        {
          "internalType": "string",
          "name": "_baseURI",
          "type": "string"
        }
      ],
      "name": "createNftReward",
      "outputs": [
        {
          "internalType": "address",
          "name": "nftRewardAddress",
          "type": "address"
        }
      ],
      "stateMutability": "nonpayable",
      "type": "function"
    },
    {
      "inputs": [],
      "name": "getMembershipParameters",
      "outputs": [
        {
          "internalType": "string",
          "name": "name",
          "type": "string"
        },
        {
          "internalType": "string",
          "name": "symbol",
          "type": "string"
        },
        {
          "internalType": "address",
          "name": "admin",
          "type": "address"
        },
        {
          "internalType": "address",
          "name": "nftContract",
          "type": "address"
        }
      ],
      "stateMutability": "view",
      "type": "function"
    },
    {
      "inputs": [],
      "name": "getNFTRewardParameters",
      "outputs": [
        {
          "internalType": "address",
          "name": "admin",
          "type": "address"
        },
        {
          "internalType": "string",
          "name": "name",
          "type": "string"
        },
        {
          "internalType": "string",
          "name": "symbol",
          "type": "string"
        },
        {
          "internalType": "string",
          "name": "baseURI",
          "type": "string"
        }
      ],
      "stateMutability": "view",
      "type": "function"
    },
    {
      "inputs": [
        {
          "internalType": "bytes32",
          "name": "role",
          "type": "bytes32"
        }
      ],
      "name": "getRoleAdmin",
      "outputs": [
        {
          "internalType": "bytes32",
          "name": "",
          "type": "bytes32"
        }
      ],
      "stateMutability": "view",
      "type": "function"
    },
    {
      "inputs": [
        {
          "internalType": "bytes32",
          "name": "role",
          "type": "bytes32"
        },
        {
          "internalType": "address",
          "name": "account",
          "type": "address"
        }
      ],
      "name": "grantRole",
      "outputs": [],
      "stateMutability": "nonpayable",
      "type": "function"
    },
    {
      "inputs": [
        {
          "internalType": "bytes32",
          "name": "role",
          "type": "bytes32"
        },
        {
          "internalType": "address",
          "name": "account",
          "type": "address"
        }
      ],
      "name": "hasRole",
      "outputs": [
        {
          "internalType": "bool",
          "name": "",
          "type": "bool"
        }
      ],
      "stateMutability": "view",
      "type": "function"
    },
    {
      "inputs": [],
      "name": "membershipImpl",
      "outputs": [
        {
          "internalType": "contract Membership",
          "name": "",
          "type": "address"
        }
      ],
      "stateMutability": "view",
      "type": "function"
    },
    {
      "inputs": [],
      "name": "membershipParameters",
      "outputs": [
        {
          "internalType": "string",
          "name": "name",
          "type": "string"
        },
        {
          "internalType": "string",
          "name": "symbol",
          "type": "string"
        },
        {
          "internalType": "address",
          "name": "admin",
          "type": "address"
        },
        {
          "internalType": "address",
          "name": "nftContract",
          "type": "address"
        }
      ],
      "stateMutability": "view",
      "type": "function"
    },
    {
      "inputs": [],
      "name": "nftImpl",
      "outputs": [
        {
          "internalType": "contract NFTReward",
          "name": "",
          "type": "address"
        }
      ],
      "stateMutability": "view",
      "type": "function"
    },
    {
      "inputs": [],
      "name": "nftParameters",
      "outputs": [
        {
          "internalType": "address",
          "name": "admin",
          "type": "address"
        },
        {
          "internalType": "string",
          "name": "name",
          "type": "string"
        },
        {
          "internalType": "string",
          "name": "symbol",
          "type": "string"
        },
        {
          "internalType": "string",
          "name": "baseURI",
          "type": "string"
        }
      ],
      "stateMutability": "view",
      "type": "function"
    },
    {
      "inputs": [
        {
          "internalType": "bytes32",
          "name": "role",
          "type": "bytes32"
        },
        {
          "internalType": "address",
          "name": "account",
          "type": "address"
        }
      ],
      "name": "renounceRole",
      "outputs": [],
      "stateMutability": "nonpayable",
      "type": "function"
    },
    {
      "inputs": [
        {
          "internalType": "bytes32",
          "name": "role",
          "type": "bytes32"
        },
        {
          "internalType": "address",
          "name": "account",
          "type": "address"
        }
      ],
      "name": "revokeRole",
      "outputs": [],
      "stateMutability": "nonpayable",
      "type": "function"
    },
    {
      "inputs": [],
      "name": "signerAddress",
      "outputs": [
        {
          "internalType": "address",
          "name": "",
          "type": "address"
        }
      ],
      "stateMutability": "view",
      "type": "function"
    },
    {
      "inputs": [
        {
          "internalType": "bytes4",
          "name": "interfaceId",
          "type": "bytes4"
        }
      ],
      "name": "supportsInterface",
      "outputs": [
        {
          "internalType": "bool",
          "name": "",
          "type": "bool"
        }
      ],
      "stateMutability": "view",
      "type": "function"
    }
  ],
  "bytecode": "0x60806040523480156200001157600080fd5b5060405162002da638038062002da6833981810160405281019062000037919062000413565b620000897f450f604b66826728ca410073b516e1076aad0ea311f86fdebe2ee3302575f10e7fdf8b4c520ffe197c5343c6f5aec59570151ef9a492f2c624fd45ddde6135ec42620001ea60201b60201c565b620000bb7fdf8b4c520ffe197c5343c6f5aec59570151ef9a492f2c624fd45ddde6135ec4280620001ea60201b60201c565b620000ed7fdf8b4c520ffe197c5343c6f5aec59570151ef9a492f2c624fd45ddde6135ec42336200024d60201b60201c565b6200011f7f450f604b66826728ca410073b516e1076aad0ea311f86fdebe2ee3302575f10e336200024d60201b60201c565b81600160006101000a81548173ffffffffffffffffffffffffffffffffffffffff021916908373ffffffffffffffffffffffffffffffffffffffff16021790555080600260006101000a81548173ffffffffffffffffffffffffffffffffffffffff021916908373ffffffffffffffffffffffffffffffffffffffff16021790555033600b60006101000a81548173ffffffffffffffffffffffffffffffffffffffff021916908373ffffffffffffffffffffffffffffffffffffffff1602179055505050620004e4565b6000620001fd836200026360201b60201c565b905081600080858152602001908152602001600020600101819055508181847fbd79b86ffe0ab8e8776151514217cd7cacd52c909f66475c3af44e129f0b00ff60405160405180910390a4505050565b6200025f82826200028260201b60201c565b5050565b6000806000838152602001908152602001600020600101549050919050565b6200029482826200037360201b60201c565b6200036f57600160008084815260200190815260200160002060000160008373ffffffffffffffffffffffffffffffffffffffff1673ffffffffffffffffffffffffffffffffffffffff16815260200190815260200160002060006101000a81548160ff02191690831515021790555062000314620003dd60201b60201c565b73ffffffffffffffffffffffffffffffffffffffff168173ffffffffffffffffffffffffffffffffffffffff16837f2f8788117e7eff1d82e926ec794901d17c78024a50270940304540a733656f0d60405160405180910390a45b5050565b600080600084815260200190815260200160002060000160008373ffffffffffffffffffffffffffffffffffffffff1673ffffffffffffffffffffffffffffffffffffffff16815260200190815260200160002060009054906101000a900460ff16905092915050565b600033905090565b600081519050620003f681620004b0565b92915050565b6000815190506200040d81620004ca565b92915050565b600080604083850312156200042757600080fd5b60006200043785828601620003fc565b92505060206200044a85828601620003e5565b9150509250929050565b6000620004618262000490565b9050919050565b6000620004758262000454565b9050919050565b6000620004898262000454565b9050919050565b600073ffffffffffffffffffffffffffffffffffffffff82169050919050565b620004bb8162000468565b8114620004c757600080fd5b50565b620004d5816200047c565b8114620004e157600080fd5b50565b6128b280620004f46000396000f3fe608060405234801561001057600080fd5b506004361061012c5760003560e01c8063892becc3116100ad578063c55d43ac11610071578063c55d43ac1461033e578063d2c194f81461035f578063d547741f1461037d578063d6d9e1ff14610399578063e2f8ce83146103c95761012c565b8063892becc31461029257806391d14854146102ae578063a217fddf146102de578063b4263f2b146102fc578063c06cf7781461031d5761012c565b80633b114374116100f45780633b114374146101e7578063492545e1146102055780634db55fe6146102235780635b7633d014610253578063644f71a8146102715761012c565b806301ffc9a714610131578063248a9ca3146101615780632a0acc6a146101915780632f2ff15d146101af57806336568abe146101cb575b600080fd5b61014b60048036038101906101469190611e9e565b6103e5565b60405161015891906121e2565b60405180910390f35b61017b60048036038101906101769190611e39565b61045f565b60405161018891906121fd565b60405180910390f35b61019961047e565b6040516101a691906121fd565b60405180910390f35b6101c960048036038101906101c49190611e62565b6104a2565b005b6101e560048036038101906101e09190611e62565b6104c3565b005b6101ef610546565b6040516101fc9190612233565b60405180910390f35b61020d61056c565b60405161021a9190612218565b60405180910390f35b61023d60048036038101906102389190611d8e565b610592565b60405161024a919061216d565b60405180910390f35b61025b61064a565b604051610268919061216d565b60405180910390f35b610279610670565b6040516102899493929190612270565b60405180910390f35b6102ac60048036038101906102a79190611ec7565b61087a565b005b6102c860048036038101906102c39190611e62565b61095e565b6040516102d591906121e2565b60405180910390f35b6102e66109c8565b6040516102f391906121fd565b60405180910390f35b6103046109cf565b6040516103149493929190612188565b60405180910390f35b610325610c16565b6040516103359493929190612270565b60405180910390f35b610346610d84565b6040516103569493929190612188565b60405180910390f35b610367610f5a565b60405161037491906121fd565b60405180910390f35b61039760048036038101906103929190611e62565b610f7e565b005b6103b360048036038101906103ae9190611f19565b610f9f565b6040516103c0919061216d565b60405180910390f35b6103e360048036038101906103de9190611ef0565b611057565b005b60007f7965db0b000000000000000000000000000000000000000000000000000000007bffffffffffffffffffffffffffffffffffffffffffffffffffffffff1916827bffffffffffffffffffffffffffffffffffffffffffffffffffffffff1916148061045857506104578261113b565b5b9050919050565b6000806000838152602001908152602001600020600101549050919050565b7fdf8b4c520ffe197c5343c6f5aec59570151ef9a492f2c624fd45ddde6135ec4281565b6104ab8261045f565b6104b4816111a5565b6104be83836111b9565b505050565b6104cb611299565b73ffffffffffffffffffffffffffffffffffffffff168173ffffffffffffffffffffffffffffffffffffffff1614610538576040517f08c379a000000000000000000000000000000000000000000000000000000000815260040161052f90612323565b60405180910390fd5b61054282826112a1565b5050565b600160009054906101000a900473ffffffffffffffffffffffffffffffffffffffff1681565b600260009054906101000a900473ffffffffffffffffffffffffffffffffffffffff1681565b60006105be7fdf8b4c520ffe197c5343c6f5aec59570151ef9a492f2c624fd45ddde6135ec423361095e565b6105fd576040517f08c379a00000000000000000000000000000000000000000000000000000000081526004016105f490612303565b60405180910390fd5b61060985858585611382565b90507f1dd37d1ffe5aefde2ffa4887ed55f9aacf68b0487e947548d2509d421095ac6f8160405161063a919061216d565b60405180910390a1949350505050565b600b60009054906101000a900473ffffffffffffffffffffffffffffffffffffffff1681565b60608060008060006007604051806080016040529081600082018054610695906125c6565b80601f01602080910402602001604051908101604052809291908181526020018280546106c1906125c6565b801561070e5780601f106106e35761010080835404028352916020019161070e565b820191906000526020600020905b8154815290600101906020018083116106f157829003601f168201915b50505050508152602001600182018054610727906125c6565b80601f0160208091040260200160405190810160405280929190818152602001828054610753906125c6565b80156107a05780601f10610775576101008083540402835291602001916107a0565b820191906000526020600020905b81548152906001019060200180831161078357829003601f168201915b505050505081526020016002820160009054906101000a900473ffffffffffffffffffffffffffffffffffffffff1673ffffffffffffffffffffffffffffffffffffffff1673ffffffffffffffffffffffffffffffffffffffff1681526020016003820160009054906101000a900473ffffffffffffffffffffffffffffffffffffffff1673ffffffffffffffffffffffffffffffffffffffff1673ffffffffffffffffffffffffffffffffffffffff16815250509050806000015181602001518260400151836060015194509450945094505090919293565b6108a47fdf8b4c520ffe197c5343c6f5aec59570151ef9a492f2c624fd45ddde6135ec423361095e565b6108e3576040517f08c379a00000000000000000000000000000000000000000000000000000000081526004016108da90612303565b60405180910390fd5b80600260006101000a81548173ffffffffffffffffffffffffffffffffffffffff021916908373ffffffffffffffffffffffffffffffffffffffff1602179055507f097da56398fd786dc7b1f1e3047937b100b85e5a28c11e5f44d99fc9e90935c981604051610953919061216d565b60405180910390a150565b600080600084815260200190815260200160002060000160008373ffffffffffffffffffffffffffffffffffffffff1673ffffffffffffffffffffffffffffffffffffffff16815260200190815260200160002060009054906101000a900460ff16905092915050565b6000801b81565b60006060806060600060036040518060800160405290816000820160009054906101000a900473ffffffffffffffffffffffffffffffffffffffff1673ffffffffffffffffffffffffffffffffffffffff1673ffffffffffffffffffffffffffffffffffffffff168152602001600182018054610a4b906125c6565b80601f0160208091040260200160405190810160405280929190818152602001828054610a77906125c6565b8015610ac45780601f10610a9957610100808354040283529160200191610ac4565b820191906000526020600020905b815481529060010190602001808311610aa757829003601f168201915b50505050508152602001600282018054610add906125c6565b80601f0160208091040260200160405190810160405280929190818152602001828054610b09906125c6565b8015610b565780601f10610b2b57610100808354040283529160200191610b56565b820191906000526020600020905b815481529060010190602001808311610b3957829003601f168201915b50505050508152602001600382018054610b6f906125c6565b80601f0160208091040260200160405190810160405280929190818152602001828054610b9b906125c6565b8015610be85780601f10610bbd57610100808354040283529160200191610be8565b820191906000526020600020905b815481529060010190602001808311610bcb57829003601f168201915b5050505050815250509050806000015181602001518260400151836060015194509450945094505090919293565b6007806000018054610c27906125c6565b80601f0160208091040260200160405190810160405280929190818152602001828054610c53906125c6565b8015610ca05780601f10610c7557610100808354040283529160200191610ca0565b820191906000526020600020905b815481529060010190602001808311610c8357829003601f168201915b505050505090806001018054610cb5906125c6565b80601f0160208091040260200160405190810160405280929190818152602001828054610ce1906125c6565b8015610d2e5780601f10610d0357610100808354040283529160200191610d2e565b820191906000526020600020905b815481529060010190602001808311610d1157829003601f168201915b5050505050908060020160009054906101000a900473ffffffffffffffffffffffffffffffffffffffff16908060030160009054906101000a900473ffffffffffffffffffffffffffffffffffffffff16905084565b60038060000160009054906101000a900473ffffffffffffffffffffffffffffffffffffffff1690806001018054610dbb906125c6565b80601f0160208091040260200160405190810160405280929190818152602001828054610de7906125c6565b8015610e345780601f10610e0957610100808354040283529160200191610e34565b820191906000526020600020905b815481529060010190602001808311610e1757829003601f168201915b505050505090806002018054610e49906125c6565b80601f0160208091040260200160405190810160405280929190818152602001828054610e75906125c6565b8015610ec25780601f10610e9757610100808354040283529160200191610ec2565b820191906000526020600020905b815481529060010190602001808311610ea557829003601f168201915b505050505090806003018054610ed7906125c6565b80601f0160208091040260200160405190810160405280929190818152602001828054610f03906125c6565b8015610f505780601f10610f2557610100808354040283529160200191610f50565b820191906000526020600020905b815481529060010190602001808311610f3357829003601f168201915b5050505050905084565b7f450f604b66826728ca410073b516e1076aad0ea311f86fdebe2ee3302575f10e81565b610f878261045f565b610f90816111a5565b610f9a83836112a1565b505050565b6000610fcb7fdf8b4c520ffe197c5343c6f5aec59570151ef9a492f2c624fd45ddde6135ec423361095e565b61100a576040517f08c379a000000000000000000000000000000000000000000000000000000000815260040161100190612303565b60405180910390fd5b6110168585858561154f565b90507f241605f8d8515386cc295c966451dd500f771aea1eaeaa203ec5be9460b5c61e81604051611047919061216d565b60405180910390a1949350505050565b6110817fdf8b4c520ffe197c5343c6f5aec59570151ef9a492f2c624fd45ddde6135ec423361095e565b6110c0576040517f08c379a00000000000000000000000000000000000000000000000000000000081526004016110b790612303565b60405180910390fd5b80600160006101000a81548173ffffffffffffffffffffffffffffffffffffffff021916908373ffffffffffffffffffffffffffffffffffffffff1602179055507f2637a9cff8a687b9381ed8aa3596107f287d2da198759f85a47d304a2718a65881604051611130919061216d565b60405180910390a150565b60007f01ffc9a7000000000000000000000000000000000000000000000000000000007bffffffffffffffffffffffffffffffffffffffffffffffffffffffff1916827bffffffffffffffffffffffffffffffffffffffffffffffffffffffff1916149050919050565b6111b6816111b1611299565b611773565b50565b6111c3828261095e565b61129557600160008084815260200190815260200160002060000160008373ffffffffffffffffffffffffffffffffffffffff1673ffffffffffffffffffffffffffffffffffffffff16815260200190815260200160002060006101000a81548160ff02191690831515021790555061123a611299565b73ffffffffffffffffffffffffffffffffffffffff168173ffffffffffffffffffffffffffffffffffffffff16837f2f8788117e7eff1d82e926ec794901d17c78024a50270940304540a733656f0d60405160405180910390a45b5050565b600033905090565b6112ab828261095e565b1561137e57600080600084815260200190815260200160002060000160008373ffffffffffffffffffffffffffffffffffffffff1673ffffffffffffffffffffffffffffffffffffffff16815260200190815260200160002060006101000a81548160ff021916908315150217905550611323611299565b73ffffffffffffffffffffffffffffffffffffffff168173ffffffffffffffffffffffffffffffffffffffff16837ff6391f5c32d9c69d2a47ea670b442974b53935d1edc7fd64eb21e047a839171b60405160405180910390a45b5050565b600060405180608001604052808673ffffffffffffffffffffffffffffffffffffffff16815260200185815260200184815260200183815250600360008201518160000160006101000a81548173ffffffffffffffffffffffffffffffffffffffff021916908373ffffffffffffffffffffffffffffffffffffffff1602179055506020820151816001019080519060200190611420929190611bda565b50604082015181600201908051906020019061143d929190611bda565b50606082015181600301908051906020019061145a929190611bda565b50905050611489600160009054906101000a900473ffffffffffffffffffffffffffffffffffffffff166117f8565b90508073ffffffffffffffffffffffffffffffffffffffff16638129fc1c6040518163ffffffff1660e01b8152600401600060405180830381600087803b1580156114d357600080fd5b505af11580156114e7573d6000803e3d6000fd5b505050506003600080820160006101000a81549073ffffffffffffffffffffffffffffffffffffffff02191690556001820160006115259190611c60565b6002820160006115359190611c60565b6003820160006115459190611c60565b5050949350505050565b600060405180608001604052808681526020018581526020018473ffffffffffffffffffffffffffffffffffffffff1681526020018373ffffffffffffffffffffffffffffffffffffffff16815250600760008201518160000190805190602001906115bc929190611bda565b5060208201518160010190805190602001906115d9929190611bda565b5060408201518160020160006101000a81548173ffffffffffffffffffffffffffffffffffffffff021916908373ffffffffffffffffffffffffffffffffffffffff16021790555060608201518160030160006101000a81548173ffffffffffffffffffffffffffffffffffffffff021916908373ffffffffffffffffffffffffffffffffffffffff160217905550905050611696600260009054906101000a900473ffffffffffffffffffffffffffffffffffffffff166117f8565b90508073ffffffffffffffffffffffffffffffffffffffff16638129fc1c6040518163ffffffff1660e01b8152600401600060405180830381600087803b1580156116e057600080fd5b505af11580156116f4573d6000803e3d6000fd5b5050505060076000808201600061170b9190611c60565b60018201600061171b9190611c60565b6002820160006101000a81549073ffffffffffffffffffffffffffffffffffffffff02191690556003820160006101000a81549073ffffffffffffffffffffffffffffffffffffffff02191690555050949350505050565b61177d828261095e565b6117f45761178a816118b3565b6117988360001c60206118e0565b6040516020016117a9929190612133565b6040516020818303038152906040526040517f08c379a00000000000000000000000000000000000000000000000000000000081526004016117eb919061224e565b60405180910390fd5b5050565b6000763d602d80600a3d3981f3363d3d373d3d3d363d730000008260601b60e81c176000526e5af43d82803e903d91602b57fd5bf38260781b17602052603760096000f09050600073ffffffffffffffffffffffffffffffffffffffff168173ffffffffffffffffffffffffffffffffffffffff1614156118ae576040517f08c379a00000000000000000000000000000000000000000000000000000000081526004016118a5906122e3565b60405180910390fd5b919050565b60606118d98273ffffffffffffffffffffffffffffffffffffffff16601460ff166118e0565b9050919050565b6060600060028360026118f39190612416565b6118fd91906123c0565b67ffffffffffffffff81111561193c577f4e487b7100000000000000000000000000000000000000000000000000000000600052604160045260246000fd5b6040519080825280601f01601f19166020018201604052801561196e5781602001600182028036833780820191505090505b5090507f3000000000000000000000000000000000000000000000000000000000000000816000815181106119cc577f4e487b7100000000000000000000000000000000000000000000000000000000600052603260045260246000fd5b60200101907effffffffffffffffffffffffffffffffffffffffffffffffffffffffffffff1916908160001a9053507f780000000000000000000000000000000000000000000000000000000000000081600181518110611a56577f4e487b7100000000000000000000000000000000000000000000000000000000600052603260045260246000fd5b60200101907effffffffffffffffffffffffffffffffffffffffffffffffffffffffffffff1916908160001a90535060006001846002611a969190612416565b611aa091906123c0565b90505b6001811115611b8c577f3031323334353637383961626364656600000000000000000000000000000000600f861660108110611b08577f4e487b7100000000000000000000000000000000000000000000000000000000600052603260045260246000fd5b1a60f81b828281518110611b45577f4e487b7100000000000000000000000000000000000000000000000000000000600052603260045260246000fd5b60200101907effffffffffffffffffffffffffffffffffffffffffffffffffffffffffffff1916908160001a905350600485901c945080611b859061259c565b9050611aa3565b5060008414611bd0576040517f08c379a0000000000000000000000000000000000000000000000000000000008152600401611bc7906122c3565b60405180910390fd5b8091505092915050565b828054611be6906125c6565b90600052602060002090601f016020900481019282611c085760008555611c4f565b82601f10611c2157805160ff1916838001178555611c4f565b82800160010185558215611c4f579182015b82811115611c4e578251825591602001919060010190611c33565b5b509050611c5c9190611ca0565b5090565b508054611c6c906125c6565b6000825580601f10611c7e5750611c9d565b601f016020900490600052602060002090810190611c9c9190611ca0565b5b50565b5b80821115611cb9576000816000905550600101611ca1565b5090565b6000611cd0611ccb84612368565b612343565b905082815260208101848484011115611ce857600080fd5b611cf384828561255a565b509392505050565b600081359050611d0a81612809565b92915050565b600081359050611d1f81612820565b92915050565b600081359050611d3481612837565b92915050565b600081359050611d498161284e565b92915050565b600081359050611d5e81612865565b92915050565b600082601f830112611d7557600080fd5b8135611d85848260208601611cbd565b91505092915050565b60008060008060808587031215611da457600080fd5b6000611db287828801611cfb565b945050602085013567ffffffffffffffff811115611dcf57600080fd5b611ddb87828801611d64565b935050604085013567ffffffffffffffff811115611df857600080fd5b611e0487828801611d64565b925050606085013567ffffffffffffffff811115611e2157600080fd5b611e2d87828801611d64565b91505092959194509250565b600060208284031215611e4b57600080fd5b6000611e5984828501611d10565b91505092915050565b60008060408385031215611e7557600080fd5b6000611e8385828601611d10565b9250506020611e9485828601611cfb565b9150509250929050565b600060208284031215611eb057600080fd5b6000611ebe84828501611d25565b91505092915050565b600060208284031215611ed957600080fd5b6000611ee784828501611d3a565b91505092915050565b600060208284031215611f0257600080fd5b6000611f1084828501611d4f565b91505092915050565b60008060008060808587031215611f2f57600080fd5b600085013567ffffffffffffffff811115611f4957600080fd5b611f5587828801611d64565b945050602085013567ffffffffffffffff811115611f7257600080fd5b611f7e87828801611d64565b9350506040611f8f87828801611cfb565b9250506060611fa087828801611cfb565b91505092959194509250565b611fb581612470565b82525050565b611fc481612482565b82525050565b611fd38161248e565b82525050565b611fe281612512565b82525050565b611ff181612536565b82525050565b600061200282612399565b61200c81856123a4565b935061201c818560208601612569565b612025816126b6565b840191505092915050565b600061203b82612399565b61204581856123b5565b9350612055818560208601612569565b80840191505092915050565b600061206e6020836123a4565b9150612079826126c7565b602082019050919050565b60006120916016836123a4565b915061209c826126f0565b602082019050919050565b60006120b46022836123a4565b91506120bf82612719565b604082019050919050565b60006120d76017836123b5565b91506120e282612768565b601782019050919050565b60006120fa6011836123b5565b915061210582612791565b601182019050919050565b600061211d602f836123a4565b9150612128826127ba565b604082019050919050565b600061213e826120ca565b915061214a8285612030565b9150612155826120ed565b91506121618284612030565b91508190509392505050565b60006020820190506121826000830184611fac565b92915050565b600060808201905061219d6000830187611fac565b81810360208301526121af8186611ff7565b905081810360408301526121c38185611ff7565b905081810360608301526121d78184611ff7565b905095945050505050565b60006020820190506121f76000830184611fbb565b92915050565b60006020820190506122126000830184611fca565b92915050565b600060208201905061222d6000830184611fd9565b92915050565b60006020820190506122486000830184611fe8565b92915050565b600060208201905081810360008301526122688184611ff7565b905092915050565b6000608082019050818103600083015261228a8187611ff7565b9050818103602083015261229e8186611ff7565b90506122ad6040830185611fac565b6122ba6060830184611fac565b95945050505050565b600060208201905081810360008301526122dc81612061565b9050919050565b600060208201905081810360008301526122fc81612084565b9050919050565b6000602082019050818103600083015261231c816120a7565b9050919050565b6000602082019050818103600083015261233c81612110565b9050919050565b600061234d61235e565b905061235982826125f8565b919050565b6000604051905090565b600067ffffffffffffffff82111561238357612382612687565b5b61238c826126b6565b9050602081019050919050565b600081519050919050565b600082825260208201905092915050565b600081905092915050565b60006123cb82612508565b91506123d683612508565b9250827fffffffffffffffffffffffffffffffffffffffffffffffffffffffffffffffff0382111561240b5761240a612629565b5b828201905092915050565b600061242182612508565b915061242c83612508565b9250817fffffffffffffffffffffffffffffffffffffffffffffffffffffffffffffffff048311821515161561246557612464612629565b5b828202905092915050565b600061247b826124e8565b9050919050565b60008115159050919050565b6000819050919050565b60007fffffffff0000000000000000000000000000000000000000000000000000000082169050919050565b60006124cf82612470565b9050919050565b60006124e182612470565b9050919050565b600073ffffffffffffffffffffffffffffffffffffffff82169050919050565b6000819050919050565b600061251d82612524565b9050919050565b600061252f826124e8565b9050919050565b600061254182612548565b9050919050565b6000612553826124e8565b9050919050565b82818337600083830152505050565b60005b8381101561258757808201518184015260208101905061256c565b83811115612596576000848401525b50505050565b60006125a782612508565b915060008214156125bb576125ba612629565b5b600182039050919050565b600060028204905060018216806125de57607f821691505b602082108114156125f2576125f1612658565b5b50919050565b612601826126b6565b810181811067ffffffffffffffff821117156126205761261f612687565b5b80604052505050565b7f4e487b7100000000000000000000000000000000000000000000000000000000600052601160045260246000fd5b7f4e487b7100000000000000000000000000000000000000000000000000000000600052602260045260246000fd5b7f4e487b7100000000000000000000000000000000000000000000000000000000600052604160045260246000fd5b6000601f19601f8301169050919050565b7f537472696e67733a20686578206c656e67746820696e73756666696369656e74600082015250565b7f455243313136373a20637265617465206661696c656400000000000000000000600082015250565b7f436f6d70616e79466163746f72793a20726571756972652041444d494e20726f60008201527f6c65000000000000000000000000000000000000000000000000000000000000602082015250565b7f416363657373436f6e74726f6c3a206163636f756e7420000000000000000000600082015250565b7f206973206d697373696e6720726f6c6520000000000000000000000000000000600082015250565b7f416363657373436f6e74726f6c3a2063616e206f6e6c792072656e6f756e636560008201527f20726f6c657320666f722073656c660000000000000000000000000000000000602082015250565b61281281612470565b811461281d57600080fd5b50565b6128298161248e565b811461283457600080fd5b50565b61284081612498565b811461284b57600080fd5b50565b612857816124c4565b811461286257600080fd5b50565b61286e816124d6565b811461287957600080fd5b5056fea264697066735822122027ca377931eca28e0be94317e83c2fd21f61c644128c87c14517f92ef4ae697e64736f6c63430008040033",
  "linkReferences": {},
  "deployedLinkReferences": {}
}