{
  "_format": "hh-sol-artifact-1",
  "contractName": "Membership",
  "sourceName": "contracts/Membership.sol",
  "abi": [
    {
      "anonymous": false,
      "inputs": [
        {
          "indexed": false,
          "internalType": "uint8",
          "name": "version",
          "type": "uint8"
        }
      ],
      "name": "Initialized",
      "type": "event"
    },
    {
      "inputs": [],
      "name": "_name",
      "outputs": [
        {
          "internalType": "string",
          "name": "",
          "type": "string"
        }
      ],
      "stateMutability": "view",
      "type": "function"
    },
    {
      "inputs": [],
      "name": "_nftContract",
      "outputs": [
        {
          "internalType": "address",
          "name": "",
          "type": "address"
        }
      ],
      "stateMutability": "view",
      "type": "function"
    },
    {
      "inputs": [],
      "name": "_symbol",
      "outputs": [
        {
          "internalType": "string",
          "name": "",
          "type": "string"
        }
      ],
      "stateMutability": "view",
      "type": "function"
    },
    {
      "inputs": [
        {
          "internalType": "address",
          "name": "_to",
          "type": "address"
        }
      ],
      "name": "deleteMember",
      "outputs": [],
      "stateMutability": "nonpayable",
      "type": "function"
    },
    {
      "inputs": [
        {
          "internalType": "uint256",
          "name": "tokenId",
          "type": "uint256"
        }
      ],
      "name": "exchangePointForReward",
      "outputs": [],
      "stateMutability": "nonpayable",
      "type": "function"
    },
    {
      "inputs": [],
      "name": "initialize",
      "outputs": [],
      "stateMutability": "nonpayable",
      "type": "function"
    },
    {
      "inputs": [
        {
          "internalType": "address",
          "name": "",
          "type": "address"
        }
      ],
      "name": "memberships",
      "outputs": [
        {
          "internalType": "uint256",
          "name": "memberType",
          "type": "uint256"
        },
        {
          "internalType": "uint256",
          "name": "role",
          "type": "uint256"
        },
        {
          "internalType": "int256",
          "name": "sex",
          "type": "int256"
        },
        {
          "internalType": "string",
          "name": "name",
          "type": "string"
        },
        {
          "internalType": "uint256",
          "name": "loyaltyPoints",
          "type": "uint256"
        },
        {
          "internalType": "string",
          "name": "tokenURI",
          "type": "string"
        },
        {
          "internalType": "bool",
          "name": "init",
          "type": "bool"
        }
      ],
      "stateMutability": "view",
      "type": "function"
    },
    {
      "inputs": [
        {
          "internalType": "address[]",
          "name": "_to",
          "type": "address[]"
        },
        {
          "internalType": "uint256[]",
          "name": "_memberType",
          "type": "uint256[]"
        },
        {
          "internalType": "uint256[]",
          "name": "_role",
          "type": "uint256[]"
        },
        {
          "internalType": "int256[]",
          "name": "_sex",
          "type": "int256[]"
        },
        {
          "internalType": "string[]",
          "name": "_name",
          "type": "string[]"
        },
        {
          "internalType": "uint256[]",
          "name": "_loyaltyPoints",
          "type": "uint256[]"
        },
        {
          "internalType": "string[]",
          "name": "_tokenURI",
          "type": "string[]"
        }
      ],
      "name": "mintMembershipBatch",
      "outputs": [],
      "stateMutability": "nonpayable",
      "type": "function"
    },
    {
      "inputs": [],
      "name": "owner",
      "outputs": [
        {
          "internalType": "address",
          "name": "",
          "type": "address"
        }
      ],
      "stateMutability": "view",
      "type": "function"
    },
    {
      "inputs": [
        {
          "internalType": "uint256[]",
          "name": "_arrPoint",
          "type": "uint256[]"
        },
        {
          "internalType": "address[]",
          "name": "_to",
          "type": "address[]"
        }
      ],
      "name": "updatePoint",
      "outputs": [],
      "stateMutability": "nonpayable",
      "type": "function"
    },
    {
      "inputs": [
        {
          "internalType": "address",
          "name": "_to",
          "type": "address"
        },
        {
          "internalType": "uint256",
          "name": "_memberType",
          "type": "uint256"
        },
        {
          "internalType": "uint256",
          "name": "_role",
          "type": "uint256"
        },
        {
          "internalType": "string",
          "name": "_name",
          "type": "string"
        },
        {
          "internalType": "uint256",
          "name": "_loyaltyPoints",
          "type": "uint256"
        },
        {
          "internalType": "string",
          "name": "_tokenURI",
          "type": "string"
        }
      ],
      "name": "updateStats",
      "outputs": [],
      "stateMutability": "nonpayable",
      "type": "function"
    }
  ],
  "bytecode": "0x608060405234801561001057600080fd5b5061236c806100206000396000f3fe608060405234801561001057600080fd5b50600436106100a95760003560e01c8063aaea53ec11610071578063aaea53ec14610144578063b09f126614610160578063c1cc09781461017e578063d123b2fb1461019a578063d28d8852146101b6578063fc79d647146101d4576100a9565b806311ffb1d4146100ae57806330f3e292146100ca57806373d98799146100e65780638129fc1c1461011c5780638da5cb5b14610126575b600080fd5b6100c860048036038101906100c391906117cc565b6101f2565b005b6100e460048036038101906100df91906118ae565b6103b1565b005b61010060048036038101906100fb91906117cc565b610954565b6040516101139796959493929190611e05565b60405180910390f35b610124610ab3565b005b61012e610d30565b60405161013b9190611c9b565b60405180910390f35b61015e60048036038101906101599190611af3565b610d56565b005b610168610f48565b6040516101759190611d08565b60405180910390f35b610198600480360381019061019391906119f4565b610fd6565b005b6101b460048036038101906101af91906117f5565b611157565b005b6101be611267565b6040516101cb9190611d08565b60405180910390f35b6101dc6112f5565b6040516101e99190611c9b565b60405180910390f35b3373ffffffffffffffffffffffffffffffffffffffff16600360009054906101000a900473ffffffffffffffffffffffffffffffffffffffff1673ffffffffffffffffffffffffffffffffffffffff1614610282576040517f08c379a000000000000000000000000000000000000000000000000000000000815260040161027990611dca565b60405180910390fd5b60011515600560008373ffffffffffffffffffffffffffffffffffffffff1673ffffffffffffffffffffffffffffffffffffffff16815260200190815260200160002060060160009054906101000a900460ff16151514610318576040517f08c379a000000000000000000000000000000000000000000000000000000000815260040161030f90611d8a565b60405180910390fd5b600560008273ffffffffffffffffffffffffffffffffffffffff1673ffffffffffffffffffffffffffffffffffffffff16815260200190815260200160002060008082016000905560018201600090556002820160009055600382016000610380919061133e565b6004820160009055600582016000610398919061133e565b6006820160006101000a81549060ff0219169055505050565b3373ffffffffffffffffffffffffffffffffffffffff16600360009054906101000a900473ffffffffffffffffffffffffffffffffffffffff1673ffffffffffffffffffffffffffffffffffffffff1614610441576040517f08c379a000000000000000000000000000000000000000000000000000000000815260040161043890611dca565b60405180910390fd5b8551875114610485576040517f08c379a000000000000000000000000000000000000000000000000000000000815260040161047c90611d2a565b60405180910390fd5b84518651146104c9576040517f08c379a00000000000000000000000000000000000000000000000000000000081526004016104c090611d2a565b60405180910390fd5b825185511461050d576040517f08c379a000000000000000000000000000000000000000000000000000000000815260040161050490611d2a565b60405180910390fd5b8151835114610551576040517f08c379a000000000000000000000000000000000000000000000000000000000815260040161054890611d2a565b60405180910390fd5b8051825114610595576040517f08c379a000000000000000000000000000000000000000000000000000000000815260040161058c90611d2a565b60405180910390fd5b60005b875181101561094a5760001515600560008a84815181106105e2577f4e487b7100000000000000000000000000000000000000000000000000000000600052603260045260246000fd5b602002602001015173ffffffffffffffffffffffffffffffffffffffff1673ffffffffffffffffffffffffffffffffffffffff16815260200190815260200160002060060160009054906101000a900460ff16151514610677576040517f08c379a000000000000000000000000000000000000000000000000000000000815260040161066e90611d4a565b60405180910390fd5b60006040518060e001604052808984815181106106bd577f4e487b7100000000000000000000000000000000000000000000000000000000600052603260045260246000fd5b60200260200101518152602001888481518110610703577f4e487b7100000000000000000000000000000000000000000000000000000000600052603260045260246000fd5b60200260200101518152602001878481518110610749577f4e487b7100000000000000000000000000000000000000000000000000000000600052603260045260246000fd5b6020026020010151815260200186848151811061078f577f4e487b7100000000000000000000000000000000000000000000000000000000600052603260045260246000fd5b602002602001015181526020018584815181106107d5577f4e487b7100000000000000000000000000000000000000000000000000000000600052603260045260246000fd5b6020026020010151815260200184848151811061081b577f4e487b7100000000000000000000000000000000000000000000000000000000600052603260045260246000fd5b6020026020010151815260200160011515815250905080600560008b858151811061086f577f4e487b7100000000000000000000000000000000000000000000000000000000600052603260045260246000fd5b602002602001015173ffffffffffffffffffffffffffffffffffffffff1673ffffffffffffffffffffffffffffffffffffffff16815260200190815260200160002060008201518160000155602082015181600101556040820151816002015560608201518160030190805190602001906108eb92919061137e565b506080820151816004015560a082015181600501908051906020019061091292919061137e565b5060c08201518160060160006101000a81548160ff021916908315150217905550905050508080610942906120ee565b915050610598565b5050505050505050565b60056020528060005260406000206000915090508060000154908060010154908060020154908060030180546109899061208b565b80601f01602080910402602001604051908101604052809291908181526020018280546109b59061208b565b8015610a025780601f106109d757610100808354040283529160200191610a02565b820191906000526020600020905b8154815290600101906020018083116109e557829003601f168201915b505050505090806004015490806005018054610a1d9061208b565b80601f0160208091040260200160405190810160405280929190818152602001828054610a499061208b565b8015610a965780601f10610a6b57610100808354040283529160200191610a96565b820191906000526020600020905b815481529060010190602001808311610a7957829003601f168201915b5050505050908060060160009054906101000a900460ff16905087565b60008060019054906101000a900460ff16159050808015610ae45750600160008054906101000a900460ff1660ff16105b80610b115750610af33061131b565b158015610b105750600160008054906101000a900460ff1660ff16145b5b610b50576040517f08c379a0000000000000000000000000000000000000000000000000000000008152600401610b4790611daa565b60405180910390fd5b60016000806101000a81548160ff021916908360ff1602179055508015610b8d576001600060016101000a81548160ff0219169083151502179055505b6000806000803373ffffffffffffffffffffffffffffffffffffffff1663644f71a86040518163ffffffff1660e01b8152600401600060405180830381600087803b158015610bdb57600080fd5b505af1158015610bef573d6000803e3d6000fd5b505050506040513d6000823e3d601f19601f82011682018060405250810190610c189190611a60565b935093509350935080600460006101000a81548173ffffffffffffffffffffffffffffffffffffffff021916908373ffffffffffffffffffffffffffffffffffffffff16021790555081600360006101000a81548173ffffffffffffffffffffffffffffffffffffffff021916908373ffffffffffffffffffffffffffffffffffffffff1602179055508360019080519060200190610cb892919061137e565b508260029080519060200190610ccf92919061137e565b50505050508015610d2d5760008060016101000a81548160ff0219169083151502179055507f7f26b83ff96e1f2b6a682f133852f6798a09c465da95921460cefb38474024986001604051610d249190611ced565b60405180910390a15b50565b600360009054906101000a900473ffffffffffffffffffffffffffffffffffffffff1681565b6000600560003373ffffffffffffffffffffffffffffffffffffffff1673ffffffffffffffffffffffffffffffffffffffff16815260200190815260200160002090506000600460009054906101000a900473ffffffffffffffffffffffffffffffffffffffff16905060008173ffffffffffffffffffffffffffffffffffffffff1663a967eee4856040518263ffffffff1660e01b8152600401610dfb9190611dea565b602060405180830381600087803b158015610e1557600080fd5b505af1158015610e29573d6000803e3d6000fd5b505050506040513d601f19601f82011682018060405250810190610e4d9190611b1c565b90508260040154811115610e96576040517f08c379a0000000000000000000000000000000000000000000000000000000008152600401610e8d90611d6a565b60405180910390fd5b80836004016000828254610eaa9190611fa4565b925050819055508173ffffffffffffffffffffffffffffffffffffffff166342842e0e600360009054906101000a900473ffffffffffffffffffffffffffffffffffffffff1633876040518463ffffffff1660e01b8152600401610f1093929190611cb6565b600060405180830381600087803b158015610f2a57600080fd5b505af1158015610f3e573d6000803e3d6000fd5b5050505050505050565b60028054610f559061208b565b80601f0160208091040260200160405190810160405280929190818152602001828054610f819061208b565b8015610fce5780601f10610fa357610100808354040283529160200191610fce565b820191906000526020600020905b815481529060010190602001808311610fb157829003601f168201915b505050505081565b3373ffffffffffffffffffffffffffffffffffffffff16600360009054906101000a900473ffffffffffffffffffffffffffffffffffffffff1673ffffffffffffffffffffffffffffffffffffffff1614611066576040517f08c379a000000000000000000000000000000000000000000000000000000000815260040161105d90611dca565b60405180910390fd5b60005b8251811015611152576000600560008484815181106110b1577f4e487b7100000000000000000000000000000000000000000000000000000000600052603260045260246000fd5b602002602001015173ffffffffffffffffffffffffffffffffffffffff1673ffffffffffffffffffffffffffffffffffffffff168152602001908152602001600020905083828151811061112e577f4e487b7100000000000000000000000000000000000000000000000000000000600052603260045260246000fd5b6020026020010151816004018190555050808061114a906120ee565b915050611069565b505050565b3373ffffffffffffffffffffffffffffffffffffffff16600360009054906101000a900473ffffffffffffffffffffffffffffffffffffffff1673ffffffffffffffffffffffffffffffffffffffff16146111e7576040517f08c379a00000000000000000000000000000000000000000000000000000000081526004016111de90611dca565b60405180910390fd5b6000600560008873ffffffffffffffffffffffffffffffffffffffff1673ffffffffffffffffffffffffffffffffffffffff16815260200190815260200160002090508581600001819055508481600101819055508281600401819055508181600501908051906020019061125d92919061137e565b5050505050505050565b600180546112749061208b565b80601f01602080910402602001604051908101604052809291908181526020018280546112a09061208b565b80156112ed5780601f106112c2576101008083540402835291602001916112ed565b820191906000526020600020905b8154815290600101906020018083116112d057829003601f168201915b505050505081565b600460009054906101000a900473ffffffffffffffffffffffffffffffffffffffff1681565b6000808273ffffffffffffffffffffffffffffffffffffffff163b119050919050565b50805461134a9061208b565b6000825580601f1061135c575061137b565b601f01602090049060005260206000209081019061137a9190611404565b5b50565b82805461138a9061208b565b90600052602060002090601f0160209004810192826113ac57600085556113f3565b82601f106113c557805160ff19168380011785556113f3565b828001600101855582156113f3579182015b828111156113f25782518255916020019190600101906113d7565b5b5090506114009190611404565b5090565b5b8082111561141d576000816000905550600101611405565b5090565b600061143461142f84611ea7565b611e82565b9050808382526020820190508285602086028201111561145357600080fd5b60005b8581101561148357816114698882611667565b845260208401935060208301925050600181019050611456565b5050509392505050565b60006114a061149b84611ed3565b611e82565b905080838252602082019050828560208602820111156114bf57600080fd5b60005b858110156114ef57816114d58882611739565b8452602084019350602083019250506001810190506114c2565b5050509392505050565b600061150c61150784611eff565b611e82565b9050808382526020820190508285602086028201111561152b57600080fd5b60005b8581101561157557813567ffffffffffffffff81111561154d57600080fd5b80860161155a898261174e565b8552602085019450602084019350505060018101905061152e565b5050509392505050565b600061159261158d84611f2b565b611e82565b905080838252602082019050828560208602820111156115b157600080fd5b60005b858110156115e157816115c788826117a2565b8452602084019350602083019250506001810190506115b4565b5050509392505050565b60006115fe6115f984611f57565b611e82565b90508281526020810184848401111561161657600080fd5b611621848285612049565b509392505050565b600061163c61163784611f57565b611e82565b90508281526020810184848401111561165457600080fd5b61165f848285612058565b509392505050565b600081359050611676816122f1565b92915050565b60008151905061168b816122f1565b92915050565b600082601f8301126116a257600080fd5b81356116b2848260208601611421565b91505092915050565b600082601f8301126116cc57600080fd5b81356116dc84826020860161148d565b91505092915050565b600082601f8301126116f657600080fd5b81356117068482602086016114f9565b91505092915050565b600082601f83011261172057600080fd5b813561173084826020860161157f565b91505092915050565b60008135905061174881612308565b92915050565b600082601f83011261175f57600080fd5b813561176f8482602086016115eb565b91505092915050565b600082601f83011261178957600080fd5b8151611799848260208601611629565b91505092915050565b6000813590506117b18161231f565b92915050565b6000815190506117c68161231f565b92915050565b6000602082840312156117de57600080fd5b60006117ec84828501611667565b91505092915050565b60008060008060008060c0878903121561180e57600080fd5b600061181c89828a01611667565b965050602061182d89828a016117a2565b955050604061183e89828a016117a2565b945050606087013567ffffffffffffffff81111561185b57600080fd5b61186789828a0161174e565b935050608061187889828a016117a2565b92505060a087013567ffffffffffffffff81111561189557600080fd5b6118a189828a0161174e565b9150509295509295509295565b600080600080600080600060e0888a0312156118c957600080fd5b600088013567ffffffffffffffff8111156118e357600080fd5b6118ef8a828b01611691565b975050602088013567ffffffffffffffff81111561190c57600080fd5b6119188a828b0161170f565b965050604088013567ffffffffffffffff81111561193557600080fd5b6119418a828b0161170f565b955050606088013567ffffffffffffffff81111561195e57600080fd5b61196a8a828b016116bb565b945050608088013567ffffffffffffffff81111561198757600080fd5b6119938a828b016116e5565b93505060a088013567ffffffffffffffff8111156119b057600080fd5b6119bc8a828b0161170f565b92505060c088013567ffffffffffffffff8111156119d957600080fd5b6119e58a828b016116e5565b91505092959891949750929550565b60008060408385031215611a0757600080fd5b600083013567ffffffffffffffff811115611a2157600080fd5b611a2d8582860161170f565b925050602083013567ffffffffffffffff811115611a4a57600080fd5b611a5685828601611691565b9150509250929050565b60008060008060808587031215611a7657600080fd5b600085015167ffffffffffffffff811115611a9057600080fd5b611a9c87828801611778565b945050602085015167ffffffffffffffff811115611ab957600080fd5b611ac587828801611778565b9350506040611ad68782880161167c565b9250506060611ae78782880161167c565b91505092959194509250565b600060208284031215611b0557600080fd5b6000611b13848285016117a2565b91505092915050565b600060208284031215611b2e57600080fd5b6000611b3c848285016117b7565b91505092915050565b611b4e81611fd8565b82525050565b611b5d81611fea565b82525050565b611b6c81611ff6565b82525050565b611b7b81612037565b82525050565b6000611b8c82611f88565b611b968185611f93565b9350611ba6818560208601612058565b611baf816121c4565b840191505092915050565b6000611bc7600e83611f93565b9150611bd2826121d5565b602082019050919050565b6000611bea601483611f93565b9150611bf5826121fe565b602082019050919050565b6000611c0d601183611f93565b9150611c1882612227565b602082019050919050565b6000611c30601083611f93565b9150611c3b82612250565b602082019050919050565b6000611c53602e83611f93565b9150611c5e82612279565b604082019050919050565b6000611c76602083611f93565b9150611c81826122c8565b602082019050919050565b611c9581612020565b82525050565b6000602082019050611cb06000830184611b45565b92915050565b6000606082019050611ccb6000830186611b45565b611cd86020830185611b45565b611ce56040830184611c8c565b949350505050565b6000602082019050611d026000830184611b72565b92915050565b60006020820190508181036000830152611d228184611b81565b905092915050565b60006020820190508181036000830152611d4381611bba565b9050919050565b60006020820190508181036000830152611d6381611bdd565b9050919050565b60006020820190508181036000830152611d8381611c00565b9050919050565b60006020820190508181036000830152611da381611c23565b9050919050565b60006020820190508181036000830152611dc381611c46565b9050919050565b60006020820190508181036000830152611de381611c69565b9050919050565b6000602082019050611dff6000830184611c8c565b92915050565b600060e082019050611e1a600083018a611c8c565b611e276020830189611c8c565b611e346040830188611b63565b8181036060830152611e468187611b81565b9050611e556080830186611c8c565b81810360a0830152611e678185611b81565b9050611e7660c0830184611b54565b98975050505050505050565b6000611e8c611e9d565b9050611e9882826120bd565b919050565b6000604051905090565b600067ffffffffffffffff821115611ec257611ec1612195565b5b602082029050602081019050919050565b600067ffffffffffffffff821115611eee57611eed612195565b5b602082029050602081019050919050565b600067ffffffffffffffff821115611f1a57611f19612195565b5b602082029050602081019050919050565b600067ffffffffffffffff821115611f4657611f45612195565b5b602082029050602081019050919050565b600067ffffffffffffffff821115611f7257611f71612195565b5b611f7b826121c4565b9050602081019050919050565b600081519050919050565b600082825260208201905092915050565b6000611faf82612020565b9150611fba83612020565b925082821015611fcd57611fcc612137565b5b828203905092915050565b6000611fe382612000565b9050919050565b60008115159050919050565b6000819050919050565b600073ffffffffffffffffffffffffffffffffffffffff82169050919050565b6000819050919050565b600060ff82169050919050565b60006120428261202a565b9050919050565b82818337600083830152505050565b60005b8381101561207657808201518184015260208101905061205b565b83811115612085576000848401525b50505050565b600060028204905060018216806120a357607f821691505b602082108114156120b7576120b6612166565b5b50919050565b6120c6826121c4565b810181811067ffffffffffffffff821117156120e5576120e4612195565b5b80604052505050565b60006120f982612020565b91507fffffffffffffffffffffffffffffffffffffffffffffffffffffffffffffffff82141561212c5761212b612137565b5b600182019050919050565b7f4e487b7100000000000000000000000000000000000000000000000000000000600052601160045260246000fd5b7f4e487b7100000000000000000000000000000000000000000000000000000000600052602260045260246000fd5b7f4e487b7100000000000000000000000000000000000000000000000000000000600052604160045260246000fd5b6000601f19601f8301169050919050565b7f496e76616c6964206c656e677468000000000000000000000000000000000000600082015250565b7f4d656d62657220616c7265616479206578697374000000000000000000000000600082015250565b7f4e6f7420656e6f75676820706f696e7473000000000000000000000000000000600082015250565b7f4d656d626572206e6f7420657869737400000000000000000000000000000000600082015250565b7f496e697469616c697a61626c653a20636f6e747261637420697320616c72656160008201527f647920696e697469616c697a6564000000000000000000000000000000000000602082015250565b7f4f776e61626c653a2063616c6c6572206973206e6f7420746865206f776e6572600082015250565b6122fa81611fd8565b811461230557600080fd5b50565b61231181611ff6565b811461231c57600080fd5b50565b61232881612020565b811461233357600080fd5b5056fea26469706673582212205b3b440f8f538a4dc6c5d441f22a7358a6023fe12e7f4e00efc971427fc3f2af64736f6c63430008040033",
  "linkReferences": {},
  "deployedLinkReferences": {}
}