{
  "_format": "hh-sol-artifact-1",
  "contractName": "NFTReward",
  "sourceName": "contracts/NFTReward.sol",
  "abi": [
    {
      "anonymous": false,
      "inputs": [
        {
          "indexed": true,
          "internalType": "address",
          "name": "owner",
          "type": "address"
        },
        {
          "indexed": true,
          "internalType": "address",
          "name": "approved",
          "type": "address"
        },
        {
          "indexed": true,
          "internalType": "uint256",
          "name": "tokenId",
          "type": "uint256"
        }
      ],
      "name": "Approval",
      "type": "event"
    },
    {
      "anonymous": false,
      "inputs": [
        {
          "indexed": true,
          "internalType": "address",
          "name": "owner",
          "type": "address"
        },
        {
          "indexed": true,
          "internalType": "address",
          "name": "operator",
          "type": "address"
        },
        {
          "indexed": false,
          "internalType": "bool",
          "name": "approved",
          "type": "bool"
        }
      ],
      "name": "ApprovalForAll",
      "type": "event"
    },
    {
      "anonymous": false,
      "inputs": [
        {
          "indexed": false,
          "internalType": "uint8",
          "name": "version",
          "type": "uint8"
        }
      ],
      "name": "Initialized",
      "type": "event"
    },
    {
      "anonymous": false,
      "inputs": [
        {
          "indexed": true,
          "internalType": "address",
          "name": "from",
          "type": "address"
        },
        {
          "indexed": true,
          "internalType": "address",
          "name": "to",
          "type": "address"
        },
        {
          "indexed": true,
          "internalType": "uint256",
          "name": "tokenId",
          "type": "uint256"
        }
      ],
      "name": "Transfer",
      "type": "event"
    },
    {
      "inputs": [
        {
          "internalType": "address",
          "name": "to",
          "type": "address"
        },
        {
          "internalType": "uint256",
          "name": "tokenId",
          "type": "uint256"
        }
      ],
      "name": "approve",
      "outputs": [],
      "stateMutability": "nonpayable",
      "type": "function"
    },
    {
      "inputs": [
        {
          "internalType": "address",
          "name": "owner",
          "type": "address"
        }
      ],
      "name": "balanceOf",
      "outputs": [
        {
          "internalType": "uint256",
          "name": "",
          "type": "uint256"
        }
      ],
      "stateMutability": "view",
      "type": "function"
    },
    {
      "inputs": [
        {
          "internalType": "uint256",
          "name": "tokenId",
          "type": "uint256"
        }
      ],
      "name": "burn",
      "outputs": [],
      "stateMutability": "nonpayable",
      "type": "function"
    },
    {
      "inputs": [
        {
          "internalType": "uint256[]",
          "name": "tokenIds",
          "type": "uint256[]"
        }
      ],
      "name": "burnBatch",
      "outputs": [],
      "stateMutability": "nonpayable",
      "type": "function"
    },
    {
      "inputs": [
        {
          "internalType": "uint256",
          "name": "tokenId",
          "type": "uint256"
        }
      ],
      "name": "getApproved",
      "outputs": [
        {
          "internalType": "address",
          "name": "",
          "type": "address"
        }
      ],
      "stateMutability": "view",
      "type": "function"
    },
    {
      "inputs": [],
      "name": "initialize",
      "outputs": [],
      "stateMutability": "nonpayable",
      "type": "function"
    },
    {
      "inputs": [
        {
          "internalType": "address",
          "name": "owner",
          "type": "address"
        },
        {
          "internalType": "address",
          "name": "operator",
          "type": "address"
        }
      ],
      "name": "isApprovedForAll",
      "outputs": [
        {
          "internalType": "bool",
          "name": "",
          "type": "bool"
        }
      ],
      "stateMutability": "view",
      "type": "function"
    },
    {
      "inputs": [],
      "name": "name",
      "outputs": [
        {
          "internalType": "string",
          "name": "",
          "type": "string"
        }
      ],
      "stateMutability": "view",
      "type": "function"
    },
    {
      "inputs": [],
      "name": "owner",
      "outputs": [
        {
          "internalType": "address",
          "name": "",
          "type": "address"
        }
      ],
      "stateMutability": "view",
      "type": "function"
    },
    {
      "inputs": [
        {
          "internalType": "uint256",
          "name": "tokenId",
          "type": "uint256"
        }
      ],
      "name": "ownerOf",
      "outputs": [
        {
          "internalType": "address",
          "name": "",
          "type": "address"
        }
      ],
      "stateMutability": "view",
      "type": "function"
    },
    {
      "inputs": [
        {
          "internalType": "address",
          "name": "to",
          "type": "address"
        }
      ],
      "name": "safeMint",
      "outputs": [],
      "stateMutability": "nonpayable",
      "type": "function"
    },
    {
      "inputs": [
        {
          "internalType": "address",
          "name": "to",
          "type": "address"
        },
        {
          "internalType": "uint8",
          "name": "amount",
          "type": "uint8"
        }
      ],
      "name": "safeMintBatch",
      "outputs": [],
      "stateMutability": "nonpayable",
      "type": "function"
    },
    {
      "inputs": [
        {
          "internalType": "address",
          "name": "from",
          "type": "address"
        },
        {
          "internalType": "address",
          "name": "to",
          "type": "address"
        },
        {
          "internalType": "uint256",
          "name": "tokenId",
          "type": "uint256"
        }
      ],
      "name": "safeTransferFrom",
      "outputs": [],
      "stateMutability": "nonpayable",
      "type": "function"
    },
    {
      "inputs": [
        {
          "internalType": "address",
          "name": "from",
          "type": "address"
        },
        {
          "internalType": "address",
          "name": "to",
          "type": "address"
        },
        {
          "internalType": "uint256",
          "name": "tokenId",
          "type": "uint256"
        },
        {
          "internalType": "bytes",
          "name": "data",
          "type": "bytes"
        }
      ],
      "name": "safeTransferFrom",
      "outputs": [],
      "stateMutability": "nonpayable",
      "type": "function"
    },
    {
      "inputs": [
        {
          "internalType": "address",
          "name": "operator",
          "type": "address"
        },
        {
          "internalType": "bool",
          "name": "approved",
          "type": "bool"
        }
      ],
      "name": "setApprovalForAll",
      "outputs": [],
      "stateMutability": "nonpayable",
      "type": "function"
    },
    {
      "inputs": [
        {
          "internalType": "bytes4",
          "name": "interfaceId",
          "type": "bytes4"
        }
      ],
      "name": "supportsInterface",
      "outputs": [
        {
          "internalType": "bool",
          "name": "",
          "type": "bool"
        }
      ],
      "stateMutability": "view",
      "type": "function"
    },
    {
      "inputs": [],
      "name": "symbol",
      "outputs": [
        {
          "internalType": "string",
          "name": "",
          "type": "string"
        }
      ],
      "stateMutability": "view",
      "type": "function"
    },
    {
      "inputs": [
        {
          "internalType": "uint256",
          "name": "tokenId",
          "type": "uint256"
        }
      ],
      "name": "tokenURI",
      "outputs": [
        {
          "internalType": "string",
          "name": "",
          "type": "string"
        }
      ],
      "stateMutability": "view",
      "type": "function"
    },
    {
      "inputs": [
        {
          "internalType": "uint256[]",
          "name": "tokenIds",
          "type": "uint256[]"
        },
        {
          "internalType": "address[]",
          "name": "receivers",
          "type": "address[]"
        }
      ],
      "name": "transferBatch",
      "outputs": [],
      "stateMutability": "nonpayable",
      "type": "function"
    },
    {
      "inputs": [
        {
          "internalType": "address",
          "name": "from",
          "type": "address"
        },
        {
          "internalType": "address",
          "name": "to",
          "type": "address"
        },
        {
          "internalType": "uint256",
          "name": "tokenId",
          "type": "uint256"
        }
      ],
      "name": "transferFrom",
      "outputs": [],
      "stateMutability": "nonpayable",
      "type": "function"
    },
    {
      "inputs": [],
      "name": "uri",
      "outputs": [
        {
          "internalType": "string",
          "name": "",
          "type": "string"
        }
      ],
      "stateMutability": "view",
      "type": "function"
    }
  ],
  "bytecode": "0x608060405234801561001057600080fd5b50613ad8806100206000396000f3fe608060405234801561001057600080fd5b50600436106101375760003560e01c806370a08231116100b8578063a22cb4651161007c578063a22cb46514610324578063b88d4fde14610340578063c87b56dd1461035c578063e4623c1b1461038c578063e985e9c5146103a8578063eac989f8146103d857610137565b806370a08231146102925780638129fc1c146102c25780638da5cb5b146102cc57806395d89b41146102ea5780639f7c00811461030857610137565b806323b872dd116100ff57806323b872dd146101f257806340d097c31461020e57806342842e0e1461022a57806342966c68146102465780636352211e1461026257610137565b806301ffc9a71461013c57806306fdde031461016c578063081812fc1461018a578063095ea7b3146101ba5780630cd72c20146101d6575b600080fd5b61015660048036038101906101519190612c56565b6103f6565b604051610163919061306b565b60405180910390f35b6101746104d8565b60405161018191906130a1565b60405180910390f35b6101a4600480360381019061019f9190612ca8565b61056a565b6040516101b19190613004565b60405180910390f35b6101d460048036038101906101cf9190612b31565b6105b0565b005b6101f060048036038101906101eb9190612b6d565b6106c8565b005b61020c60048036038101906102079190612980565b61079e565b005b6102286004803603810190610223919061291b565b6107fe565b005b610244600480360381019061023f9190612980565b6108ae565b005b610260600480360381019061025b9190612ca8565b6108ce565b005b61027c60048036038101906102779190612ca8565b6109e0565b6040516102899190613004565b60405180910390f35b6102ac60048036038101906102a7919061291b565b610a67565b6040516102b991906132c3565b60405180910390f35b6102ca610b1f565b005b6102d4610d4e565b6040516102e19190613004565b60405180910390f35b6102f2610d74565b6040516102ff91906130a1565b60405180910390f35b610322600480360381019061031d9190612bea565b610e06565b005b61033e60048036038101906103399190612a4a565b61104f565b005b61035a600480360381019061035591906129cf565b611065565b005b61037660048036038101906103719190612ca8565b6110c7565b60405161038391906130a1565b60405180910390f35b6103a660048036038101906103a19190612ba9565b61112f565b005b6103c260048036038101906103bd9190612944565b6112e1565b6040516103cf919061306b565b60405180910390f35b6103e0611375565b6040516103ed91906130a1565b60405180910390f35b60007f80ac58cd000000000000000000000000000000000000000000000000000000007bffffffffffffffffffffffffffffffffffffffffffffffffffffffff1916827bffffffffffffffffffffffffffffffffffffffffffffffffffffffff191614806104c157507f5b5e139f000000000000000000000000000000000000000000000000000000007bffffffffffffffffffffffffffffffffffffffffffffffffffffffff1916827bffffffffffffffffffffffffffffffffffffffffffffffffffffffff1916145b806104d157506104d082611403565b5b9050919050565b6060606580546104e7906134d5565b80601f0160208091040260200160405190810160405280929190818152602001828054610513906134d5565b80156105605780601f1061053557610100808354040283529160200191610560565b820191906000526020600020905b81548152906001019060200180831161054357829003601f168201915b5050505050905090565b60006105758261146d565b6069600083815260200190815260200160002060009054906101000a900473ffffffffffffffffffffffffffffffffffffffff169050919050565b60006105bb826109e0565b90508073ffffffffffffffffffffffffffffffffffffffff168373ffffffffffffffffffffffffffffffffffffffff16141561062c576040517f08c379a000000000000000000000000000000000000000000000000000000000815260040161062390613263565b60405180910390fd5b8073ffffffffffffffffffffffffffffffffffffffff1661064b6114b8565b73ffffffffffffffffffffffffffffffffffffffff16148061067a5750610679816106746114b8565b6112e1565b5b6106b9576040517f08c379a00000000000000000000000000000000000000000000000000000000081526004016106b090613283565b60405180910390fd5b6106c383836114c0565b505050565b3273ffffffffffffffffffffffffffffffffffffffff16609760009054906101000a900473ffffffffffffffffffffffffffffffffffffffff1673ffffffffffffffffffffffffffffffffffffffff1614610758576040517f08c379a000000000000000000000000000000000000000000000000000000000815260040161074f906131e3565b60405180910390fd5b60005b8160ff168160ff1610156107995761077c836107776099611579565b611587565b61078660996115a5565b808061079190613581565b91505061075b565b505050565b6107af6107a96114b8565b826115bb565b6107ee576040517f08c379a00000000000000000000000000000000000000000000000000000000081526004016107e5906130c3565b60405180910390fd5b6107f9838383611650565b505050565b3273ffffffffffffffffffffffffffffffffffffffff16609760009054906101000a900473ffffffffffffffffffffffffffffffffffffffff1673ffffffffffffffffffffffffffffffffffffffff161461088e576040517f08c379a0000000000000000000000000000000000000000000000000000000008152600401610885906131e3565b60405180910390fd5b6108a18161089c6099611579565b611587565b6108ab60996115a5565b50565b6108c983838360405180602001604052806000815250611065565b505050565b3273ffffffffffffffffffffffffffffffffffffffff16609760009054906101000a900473ffffffffffffffffffffffffffffffffffffffff1673ffffffffffffffffffffffffffffffffffffffff161461095e576040517f08c379a0000000000000000000000000000000000000000000000000000000008152600401610955906131e3565b60405180910390fd5b610967816109e0565b73ffffffffffffffffffffffffffffffffffffffff163373ffffffffffffffffffffffffffffffffffffffff16146109d4576040517f08c379a00000000000000000000000000000000000000000000000000000000081526004016109cb90613203565b60405180910390fd5b6109dd8161194a565b50565b6000806109ec83611a98565b9050600073ffffffffffffffffffffffffffffffffffffffff168173ffffffffffffffffffffffffffffffffffffffff161415610a5e576040517f08c379a0000000000000000000000000000000000000000000000000000000008152600401610a5590613243565b60405180910390fd5b80915050919050565b60008073ffffffffffffffffffffffffffffffffffffffff168273ffffffffffffffffffffffffffffffffffffffff161415610ad8576040517f08c379a0000000000000000000000000000000000000000000000000000000008152600401610acf90613183565b60405180910390fd5b606860008373ffffffffffffffffffffffffffffffffffffffff1673ffffffffffffffffffffffffffffffffffffffff168152602001908152602001600020549050919050565b60008060019054906101000a900460ff16159050808015610b505750600160008054906101000a900460ff1660ff16105b80610b7d5750610b5f30611ad5565b158015610b7c5750600160008054906101000a900460ff1660ff16145b5b610bbc576040517f08c379a0000000000000000000000000000000000000000000000000000000008152600401610bb3906131a3565b60405180910390fd5b60016000806101000a81548160ff021916908360ff1602179055508015610bf9576001600060016101000a81548160ff0219169083151502179055505b6000806000803373ffffffffffffffffffffffffffffffffffffffff1663b4263f2b6040518163ffffffff1660e01b8152600401600060405180830381600087803b158015610c4757600080fd5b505af1158015610c5b573d6000803e3d6000fd5b505050506040513d6000823e3d601f19601f82011682018060405250810190610c849190612a86565b9350935093509350610c968383611af8565b8060989080519060200190610cac9291906125e9565b5083609760006101000a81548173ffffffffffffffffffffffffffffffffffffffff021916908373ffffffffffffffffffffffffffffffffffffffff160217905550505050508015610d4b5760008060016101000a81548160ff0219169083151502179055507f7f26b83ff96e1f2b6a682f133852f6798a09c465da95921460cefb38474024986001604051610d429190613086565b60405180910390a15b50565b609760009054906101000a900473ffffffffffffffffffffffffffffffffffffffff1681565b606060668054610d83906134d5565b80601f0160208091040260200160405190810160405280929190818152602001828054610daf906134d5565b8015610dfc5780601f10610dd157610100808354040283529160200191610dfc565b820191906000526020600020905b815481529060010190602001808311610ddf57829003601f168201915b5050505050905090565b3273ffffffffffffffffffffffffffffffffffffffff16609760009054906101000a900473ffffffffffffffffffffffffffffffffffffffff1673ffffffffffffffffffffffffffffffffffffffff1614610e96576040517f08c379a0000000000000000000000000000000000000000000000000000000008152600401610e8d906131e3565b60405180910390fd5b8051825114610eda576040517f08c379a0000000000000000000000000000000000000000000000000000000008152600401610ed190613223565b60405180910390fd5b60005b825181101561104a57610f2f838281518110610f22577f4e487b7100000000000000000000000000000000000000000000000000000000600052603260045260246000fd5b60200260200101516109e0565b73ffffffffffffffffffffffffffffffffffffffff163373ffffffffffffffffffffffffffffffffffffffff1614610f9c576040517f08c379a0000000000000000000000000000000000000000000000000000000008152600401610f9390613203565b60405180910390fd5b61103733838381518110610fd9577f4e487b7100000000000000000000000000000000000000000000000000000000600052603260045260246000fd5b602002602001015185848151811061101a577f4e487b7100000000000000000000000000000000000000000000000000000000600052603260045260246000fd5b602002602001015160405180602001604052806000815250611b55565b808061104290613538565b915050610edd565b505050565b61106161105a6114b8565b8383611bb1565b5050565b6110766110706114b8565b836115bb565b6110b5576040517f08c379a00000000000000000000000000000000000000000000000000000000081526004016110ac906130c3565b60405180910390fd5b6110c184848484611b55565b50505050565b60606110d28261146d565b60006110dc611d1e565b905060008151116110fc5760405180602001604052806000815250611127565b8061110684611db0565b604051602001611117929190612fe0565b6040516020818303038152906040525b915050919050565b3273ffffffffffffffffffffffffffffffffffffffff16609760009054906101000a900473ffffffffffffffffffffffffffffffffffffffff1673ffffffffffffffffffffffffffffffffffffffff16146111bf576040517f08c379a00000000000000000000000000000000000000000000000000000000081526004016111b6906131e3565b60405180910390fd5b60005b81518110156112dd57611214828281518110611207577f4e487b7100000000000000000000000000000000000000000000000000000000600052603260045260246000fd5b60200260200101516109e0565b73ffffffffffffffffffffffffffffffffffffffff163373ffffffffffffffffffffffffffffffffffffffff1614611281576040517f08c379a000000000000000000000000000000000000000000000000000000000815260040161127890613203565b60405180910390fd5b6112ca8282815181106112bd577f4e487b7100000000000000000000000000000000000000000000000000000000600052603260045260246000fd5b602002602001015161194a565b80806112d590613538565b9150506111c2565b5050565b6000606a60008473ffffffffffffffffffffffffffffffffffffffff1673ffffffffffffffffffffffffffffffffffffffff16815260200190815260200160002060008373ffffffffffffffffffffffffffffffffffffffff1673ffffffffffffffffffffffffffffffffffffffff16815260200190815260200160002060009054906101000a900460ff16905092915050565b60988054611382906134d5565b80601f01602080910402602001604051908101604052809291908181526020018280546113ae906134d5565b80156113fb5780601f106113d0576101008083540402835291602001916113fb565b820191906000526020600020905b8154815290600101906020018083116113de57829003601f168201915b505050505081565b60007f01ffc9a7000000000000000000000000000000000000000000000000000000007bffffffffffffffffffffffffffffffffffffffffffffffffffffffff1916827bffffffffffffffffffffffffffffffffffffffffffffffffffffffff1916149050919050565b61147681611ed4565b6114b5576040517f08c379a00000000000000000000000000000000000000000000000000000000081526004016114ac90613243565b60405180910390fd5b50565b600033905090565b816069600083815260200190815260200160002060006101000a81548173ffffffffffffffffffffffffffffffffffffffff021916908373ffffffffffffffffffffffffffffffffffffffff160217905550808273ffffffffffffffffffffffffffffffffffffffff16611533836109e0565b73ffffffffffffffffffffffffffffffffffffffff167f8c5be1e5ebec7d5bd14f71427d1e84f3dd0314c0f7b2291e5b200ac8c7c3b92560405160405180910390a45050565b600081600001549050919050565b6115a1828260405180602001604052806000815250611f15565b5050565b6001816000016000828254019250508190555050565b6000806115c7836109e0565b90508073ffffffffffffffffffffffffffffffffffffffff168473ffffffffffffffffffffffffffffffffffffffff161480611609575061160881856112e1565b5b8061164757508373ffffffffffffffffffffffffffffffffffffffff1661162f8461056a565b73ffffffffffffffffffffffffffffffffffffffff16145b91505092915050565b8273ffffffffffffffffffffffffffffffffffffffff16611670826109e0565b73ffffffffffffffffffffffffffffffffffffffff16146116c6576040517f08c379a00000000000000000000000000000000000000000000000000000000081526004016116bd90613103565b60405180910390fd5b600073ffffffffffffffffffffffffffffffffffffffff168273ffffffffffffffffffffffffffffffffffffffff161415611736576040517f08c379a000000000000000000000000000000000000000000000000000000000815260040161172d90613143565b60405180910390fd5b6117438383836001611f70565b8273ffffffffffffffffffffffffffffffffffffffff16611763826109e0565b73ffffffffffffffffffffffffffffffffffffffff16146117b9576040517f08c379a00000000000000000000000000000000000000000000000000000000081526004016117b090613103565b60405180910390fd5b6069600082815260200190815260200160002060006101000a81549073ffffffffffffffffffffffffffffffffffffffff02191690556001606860008573ffffffffffffffffffffffffffffffffffffffff1673ffffffffffffffffffffffffffffffffffffffff168152602001908152602001600020600082825403925050819055506001606860008473ffffffffffffffffffffffffffffffffffffffff1673ffffffffffffffffffffffffffffffffffffffff16815260200190815260200160002060008282540192505081905550816067600083815260200190815260200160002060006101000a81548173ffffffffffffffffffffffffffffffffffffffff021916908373ffffffffffffffffffffffffffffffffffffffff160217905550808273ffffffffffffffffffffffffffffffffffffffff168473ffffffffffffffffffffffffffffffffffffffff167fddf252ad1be2c89b69c2b068fc378daa952ba7f163c4a11628f55a4df523b3ef60405160405180910390a46119458383836001611f76565b505050565b6000611955826109e0565b9050611965816000846001611f70565b61196e826109e0565b90506069600083815260200190815260200160002060006101000a81549073ffffffffffffffffffffffffffffffffffffffff02191690556001606860008373ffffffffffffffffffffffffffffffffffffffff1673ffffffffffffffffffffffffffffffffffffffff168152602001908152602001600020600082825403925050819055506067600083815260200190815260200160002060006101000a81549073ffffffffffffffffffffffffffffffffffffffff021916905581600073ffffffffffffffffffffffffffffffffffffffff168273ffffffffffffffffffffffffffffffffffffffff167fddf252ad1be2c89b69c2b068fc378daa952ba7f163c4a11628f55a4df523b3ef60405160405180910390a4611a94816000846001611f76565b5050565b60006067600083815260200190815260200160002060009054906101000a900473ffffffffffffffffffffffffffffffffffffffff169050919050565b6000808273ffffffffffffffffffffffffffffffffffffffff163b119050919050565b600060019054906101000a900460ff16611b47576040517f08c379a0000000000000000000000000000000000000000000000000000000008152600401611b3e906132a3565b60405180910390fd5b611b518282611f7c565b5050565b611b60848484611650565b611b6c84848484611ffd565b611bab576040517f08c379a0000000000000000000000000000000000000000000000000000000008152600401611ba2906130e3565b60405180910390fd5b50505050565b8173ffffffffffffffffffffffffffffffffffffffff168373ffffffffffffffffffffffffffffffffffffffff161415611c20576040517f08c379a0000000000000000000000000000000000000000000000000000000008152600401611c1790613163565b60405180910390fd5b80606a60008573ffffffffffffffffffffffffffffffffffffffff1673ffffffffffffffffffffffffffffffffffffffff16815260200190815260200160002060008473ffffffffffffffffffffffffffffffffffffffff1673ffffffffffffffffffffffffffffffffffffffff16815260200190815260200160002060006101000a81548160ff0219169083151502179055508173ffffffffffffffffffffffffffffffffffffffff168373ffffffffffffffffffffffffffffffffffffffff167f17307eab39ab6107e8899845ad3d59bd9653f200f220920489ca2b5937696c3183604051611d11919061306b565b60405180910390a3505050565b606060988054611d2d906134d5565b80601f0160208091040260200160405190810160405280929190818152602001828054611d59906134d5565b8015611da65780601f10611d7b57610100808354040283529160200191611da6565b820191906000526020600020905b815481529060010190602001808311611d8957829003601f168201915b5050505050905090565b606060006001611dbf84612194565b01905060008167ffffffffffffffff811115611e04577f4e487b7100000000000000000000000000000000000000000000000000000000600052604160045260246000fd5b6040519080825280601f01601f191660200182016040528015611e365781602001600182028036833780820191505090505b509050600082602001820190505b600115611ec9578080600190039150507f3031323334353637383961626364656600000000000000000000000000000000600a86061a8153600a8581611eb3577f4e487b7100000000000000000000000000000000000000000000000000000000600052601260045260246000fd5b0494506000851415611ec457611ec9565b611e44565b819350505050919050565b60008073ffffffffffffffffffffffffffffffffffffffff16611ef683611a98565b73ffffffffffffffffffffffffffffffffffffffff1614159050919050565b611f1f83836123cb565b611f2c6000848484611ffd565b611f6b576040517f08c379a0000000000000000000000000000000000000000000000000000000008152600401611f62906130e3565b60405180910390fd5b505050565b50505050565b50505050565b600060019054906101000a900460ff16611fcb576040517f08c379a0000000000000000000000000000000000000000000000000000000008152600401611fc2906132a3565b60405180910390fd5b8160659080519060200190611fe19291906125e9565b508060669080519060200190611ff89291906125e9565b505050565b600061201e8473ffffffffffffffffffffffffffffffffffffffff16611ad5565b15612187578373ffffffffffffffffffffffffffffffffffffffff1663150b7a026120476114b8565b8786866040518563ffffffff1660e01b8152600401612069949392919061301f565b602060405180830381600087803b15801561208357600080fd5b505af19250505080156120b457506040513d601f19601f820116820180604052508101906120b19190612c7f565b60015b612137573d80600081146120e4576040519150601f19603f3d011682016040523d82523d6000602084013e6120e9565b606091505b5060008151141561212f576040517f08c379a0000000000000000000000000000000000000000000000000000000008152600401612126906130e3565b60405180910390fd5b805181602001fd5b63150b7a0260e01b7bffffffffffffffffffffffffffffffffffffffffffffffffffffffff1916817bffffffffffffffffffffffffffffffffffffffffffffffffffffffff19161491505061218c565b600190505b949350505050565b600080600090507a184f03e93ff9f4daa797ed6e38ed64bf6a1f0100000000000000008310612218577a184f03e93ff9f4daa797ed6e38ed64bf6a1f010000000000000000838161220e577f4e487b7100000000000000000000000000000000000000000000000000000000600052601260045260246000fd5b0492506040810190505b6d04ee2d6d415b85acef8100000000831061227b576d04ee2d6d415b85acef81000000008381612271577f4e487b7100000000000000000000000000000000000000000000000000000000600052601260045260246000fd5b0492506020810190505b662386f26fc1000083106122d057662386f26fc1000083816122c6577f4e487b7100000000000000000000000000000000000000000000000000000000600052601260045260246000fd5b0492506010810190505b6305f5e100831061231f576305f5e1008381612315577f4e487b7100000000000000000000000000000000000000000000000000000000600052601260045260246000fd5b0492506008810190505b612710831061236a576127108381612360577f4e487b7100000000000000000000000000000000000000000000000000000000600052601260045260246000fd5b0492506004810190505b606483106123b357606483816123a9577f4e487b7100000000000000000000000000000000000000000000000000000000600052601260045260246000fd5b0492506002810190505b600a83106123c2576001810190505b80915050919050565b600073ffffffffffffffffffffffffffffffffffffffff168273ffffffffffffffffffffffffffffffffffffffff16141561243b576040517f08c379a0000000000000000000000000000000000000000000000000000000008152600401612432906131c3565b60405180910390fd5b61244481611ed4565b15612484576040517f08c379a000000000000000000000000000000000000000000000000000000000815260040161247b90613123565b60405180910390fd5b612492600083836001611f70565b61249b81611ed4565b156124db576040517f08c379a00000000000000000000000000000000000000000000000000000000081526004016124d290613123565b60405180910390fd5b6001606860008473ffffffffffffffffffffffffffffffffffffffff1673ffffffffffffffffffffffffffffffffffffffff16815260200190815260200160002060008282540192505081905550816067600083815260200190815260200160002060006101000a81548173ffffffffffffffffffffffffffffffffffffffff021916908373ffffffffffffffffffffffffffffffffffffffff160217905550808273ffffffffffffffffffffffffffffffffffffffff16600073ffffffffffffffffffffffffffffffffffffffff167fddf252ad1be2c89b69c2b068fc378daa952ba7f163c4a11628f55a4df523b3ef60405160405180910390a46125e5600083836001611f76565b5050565b8280546125f5906134d5565b90600052602060002090601f016020900481019282612617576000855561265e565b82601f1061263057805160ff191683800117855561265e565b8280016001018555821561265e579182015b8281111561265d578251825591602001919060010190612642565b5b50905061266b919061266f565b5090565b5b80821115612688576000816000905550600101612670565b5090565b600061269f61269a84613303565b6132de565b905080838252602082019050828560208602820111156126be57600080fd5b60005b858110156126ee57816126d488826127e0565b8452602084019350602083019250506001810190506126c1565b5050509392505050565b600061270b6127068461332f565b6132de565b9050808382526020820190508285602086028201111561272a57600080fd5b60005b8581101561275a578161274088826128f1565b84526020840193506020830192505060018101905061272d565b5050509392505050565b60006127776127728461335b565b6132de565b90508281526020810184848401111561278f57600080fd5b61279a848285613493565b509392505050565b60006127b56127b08461338c565b6132de565b9050828152602081018484840111156127cd57600080fd5b6127d88482856134a2565b509392505050565b6000813590506127ef81613a2f565b92915050565b60008151905061280481613a2f565b92915050565b600082601f83011261281b57600080fd5b813561282b84826020860161268c565b91505092915050565b600082601f83011261284557600080fd5b81356128558482602086016126f8565b91505092915050565b60008135905061286d81613a46565b92915050565b60008135905061288281613a5d565b92915050565b60008151905061289781613a5d565b92915050565b600082601f8301126128ae57600080fd5b81356128be848260208601612764565b91505092915050565b600082601f8301126128d857600080fd5b81516128e88482602086016127a2565b91505092915050565b60008135905061290081613a74565b92915050565b60008135905061291581613a8b565b92915050565b60006020828403121561292d57600080fd5b600061293b848285016127e0565b91505092915050565b6000806040838503121561295757600080fd5b6000612965858286016127e0565b9250506020612976858286016127e0565b9150509250929050565b60008060006060848603121561299557600080fd5b60006129a3868287016127e0565b93505060206129b4868287016127e0565b92505060406129c5868287016128f1565b9150509250925092565b600080600080608085870312156129e557600080fd5b60006129f3878288016127e0565b9450506020612a04878288016127e0565b9350506040612a15878288016128f1565b925050606085013567ffffffffffffffff811115612a3257600080fd5b612a3e8782880161289d565b91505092959194509250565b60008060408385031215612a5d57600080fd5b6000612a6b858286016127e0565b9250506020612a7c8582860161285e565b9150509250929050565b60008060008060808587031215612a9c57600080fd5b6000612aaa878288016127f5565b945050602085015167ffffffffffffffff811115612ac757600080fd5b612ad3878288016128c7565b935050604085015167ffffffffffffffff811115612af057600080fd5b612afc878288016128c7565b925050606085015167ffffffffffffffff811115612b1957600080fd5b612b25878288016128c7565b91505092959194509250565b60008060408385031215612b4457600080fd5b6000612b52858286016127e0565b9250506020612b63858286016128f1565b9150509250929050565b60008060408385031215612b8057600080fd5b6000612b8e858286016127e0565b9250506020612b9f85828601612906565b9150509250929050565b600060208284031215612bbb57600080fd5b600082013567ffffffffffffffff811115612bd557600080fd5b612be184828501612834565b91505092915050565b60008060408385031215612bfd57600080fd5b600083013567ffffffffffffffff811115612c1757600080fd5b612c2385828601612834565b925050602083013567ffffffffffffffff811115612c4057600080fd5b612c4c8582860161280a565b9150509250929050565b600060208284031215612c6857600080fd5b6000612c7684828501612873565b91505092915050565b600060208284031215612c9157600080fd5b6000612c9f84828501612888565b91505092915050565b600060208284031215612cba57600080fd5b6000612cc8848285016128f1565b91505092915050565b612cda81613400565b82525050565b612ce981613412565b82525050565b6000612cfa826133bd565b612d0481856133d3565b9350612d148185602086016134a2565b612d1d81613638565b840191505092915050565b612d3181613481565b82525050565b6000612d42826133c8565b612d4c81856133e4565b9350612d5c8185602086016134a2565b612d6581613638565b840191505092915050565b6000612d7b826133c8565b612d8581856133f5565b9350612d958185602086016134a2565b80840191505092915050565b6000612dae602d836133e4565b9150612db982613649565b604082019050919050565b6000612dd16032836133e4565b9150612ddc82613698565b604082019050919050565b6000612df46025836133e4565b9150612dff826136e7565b604082019050919050565b6000612e17601c836133e4565b9150612e2282613736565b602082019050919050565b6000612e3a6024836133e4565b9150612e458261375f565b604082019050919050565b6000612e5d6019836133e4565b9150612e68826137ae565b602082019050919050565b6000612e806029836133e4565b9150612e8b826137d7565b604082019050919050565b6000612ea3602e836133e4565b9150612eae82613826565b604082019050919050565b6000612ec66020836133e4565b9150612ed182613875565b602082019050919050565b6000612ee96020836133e4565b9150612ef48261389e565b602082019050919050565b6000612f0c600d836133e4565b9150612f17826138c7565b602082019050919050565b6000612f2f600d836133e4565b9150612f3a826138f0565b602082019050919050565b6000612f526018836133e4565b9150612f5d82613919565b602082019050919050565b6000612f756021836133e4565b9150612f8082613942565b604082019050919050565b6000612f98603d836133e4565b9150612fa382613991565b604082019050919050565b6000612fbb602b836133e4565b9150612fc6826139e0565b604082019050919050565b612fda8161346a565b82525050565b6000612fec8285612d70565b9150612ff88284612d70565b91508190509392505050565b60006020820190506130196000830184612cd1565b92915050565b60006080820190506130346000830187612cd1565b6130416020830186612cd1565b61304e6040830185612fd1565b81810360608301526130608184612cef565b905095945050505050565b60006020820190506130806000830184612ce0565b92915050565b600060208201905061309b6000830184612d28565b92915050565b600060208201905081810360008301526130bb8184612d37565b905092915050565b600060208201905081810360008301526130dc81612da1565b9050919050565b600060208201905081810360008301526130fc81612dc4565b9050919050565b6000602082019050818103600083015261311c81612de7565b9050919050565b6000602082019050818103600083015261313c81612e0a565b9050919050565b6000602082019050818103600083015261315c81612e2d565b9050919050565b6000602082019050818103600083015261317c81612e50565b9050919050565b6000602082019050818103600083015261319c81612e73565b9050919050565b600060208201905081810360008301526131bc81612e96565b9050919050565b600060208201905081810360008301526131dc81612eb9565b9050919050565b600060208201905081810360008301526131fc81612edc565b9050919050565b6000602082019050818103600083015261321c81612eff565b9050919050565b6000602082019050818103600083015261323c81612f22565b9050919050565b6000602082019050818103600083015261325c81612f45565b9050919050565b6000602082019050818103600083015261327c81612f68565b9050919050565b6000602082019050818103600083015261329c81612f8b565b9050919050565b600060208201905081810360008301526132bc81612fae565b9050919050565b60006020820190506132d86000830184612fd1565b92915050565b60006132e86132f9565b90506132f48282613507565b919050565b6000604051905090565b600067ffffffffffffffff82111561331e5761331d613609565b5b602082029050602081019050919050565b600067ffffffffffffffff82111561334a57613349613609565b5b602082029050602081019050919050565b600067ffffffffffffffff82111561337657613375613609565b5b61337f82613638565b9050602081019050919050565b600067ffffffffffffffff8211156133a7576133a6613609565b5b6133b082613638565b9050602081019050919050565b600081519050919050565b600081519050919050565b600082825260208201905092915050565b600082825260208201905092915050565b600081905092915050565b600061340b8261344a565b9050919050565b60008115159050919050565b60007fffffffff0000000000000000000000000000000000000000000000000000000082169050919050565b600073ffffffffffffffffffffffffffffffffffffffff82169050919050565b6000819050919050565b600060ff82169050919050565b600061348c82613474565b9050919050565b82818337600083830152505050565b60005b838110156134c05780820151818401526020810190506134a5565b838111156134cf576000848401525b50505050565b600060028204905060018216806134ed57607f821691505b60208210811415613501576135006135da565b5b50919050565b61351082613638565b810181811067ffffffffffffffff8211171561352f5761352e613609565b5b80604052505050565b60006135438261346a565b91507fffffffffffffffffffffffffffffffffffffffffffffffffffffffffffffffff821415613576576135756135ab565b5b600182019050919050565b600061358c82613474565b915060ff8214156135a05761359f6135ab565b5b600182019050919050565b7f4e487b7100000000000000000000000000000000000000000000000000000000600052601160045260246000fd5b7f4e487b7100000000000000000000000000000000000000000000000000000000600052602260045260246000fd5b7f4e487b7100000000000000000000000000000000000000000000000000000000600052604160045260246000fd5b6000601f19601f8301169050919050565b7f4552433732313a2063616c6c6572206973206e6f7420746f6b656e206f776e6560008201527f72206f7220617070726f76656400000000000000000000000000000000000000602082015250565b7f4552433732313a207472616e7366657220746f206e6f6e20455243373231526560008201527f63656976657220696d706c656d656e7465720000000000000000000000000000602082015250565b7f4552433732313a207472616e736665722066726f6d20696e636f72726563742060008201527f6f776e6572000000000000000000000000000000000000000000000000000000602082015250565b7f4552433732313a20746f6b656e20616c7265616479206d696e74656400000000600082015250565b7f4552433732313a207472616e7366657220746f20746865207a65726f2061646460008201527f7265737300000000000000000000000000000000000000000000000000000000602082015250565b7f4552433732313a20617070726f766520746f2063616c6c657200000000000000600082015250565b7f4552433732313a2061646472657373207a65726f206973206e6f74206120766160008201527f6c6964206f776e65720000000000000000000000000000000000000000000000602082015250565b7f496e697469616c697a61626c653a20636f6e747261637420697320616c72656160008201527f647920696e697469616c697a6564000000000000000000000000000000000000602082015250565b7f4552433732313a206d696e7420746f20746865207a65726f2061646472657373600082015250565b7f4f776e61626c653a2063616c6c6572206973206e6f7420746865206f776e6572600082015250565b7f4e6f74206f776e20746f6b656e00000000000000000000000000000000000000600082015250565b7f496e76616c696420696e70757400000000000000000000000000000000000000600082015250565b7f4552433732313a20696e76616c696420746f6b656e2049440000000000000000600082015250565b7f4552433732313a20617070726f76616c20746f2063757272656e74206f776e6560008201527f7200000000000000000000000000000000000000000000000000000000000000602082015250565b7f4552433732313a20617070726f76652063616c6c6572206973206e6f7420746f60008201527f6b656e206f776e6572206f7220617070726f76656420666f7220616c6c000000602082015250565b7f496e697469616c697a61626c653a20636f6e7472616374206973206e6f74206960008201527f6e697469616c697a696e67000000000000000000000000000000000000000000602082015250565b613a3881613400565b8114613a4357600080fd5b50565b613a4f81613412565b8114613a5a57600080fd5b50565b613a668161341e565b8114613a7157600080fd5b50565b613a7d8161346a565b8114613a8857600080fd5b50565b613a9481613474565b8114613a9f57600080fd5b5056fea2646970667358221220bcdf56b4fea367c9690939a81c6506c3b03e498def7a632a74bb6d2fe49695de64736f6c63430008040033",
  "linkReferences": {},
  "deployedLinkReferences": {}
}